:100000000C942A000C9459000C9473000C948D00ED
:100010000C9434000C9434000C9434000C94340090
:100020000C9434000C9434000C9434000C94340080
:100030000C9434000C9434000C9434000C94340070
:100040000C9434000C9434000C9434000C94340060
:100050000C94340011241FBECFE5D8E0DEBFCDBF25
:100060000E9451000C94A7000C9400008D9A8E9A67
:100070008F9A089585B7816085BF85B7846085BFF5
:1000800085B7886085BF84B78F7B84BF8BB780625C
:100090008BBF8BB780648BBF8BB780688BBF789426
:1000A00008950E943A000E94360095989698979875
:1000B000FCCF1F920F920FB60F9211242F938F93A4
:1000C0009F93959A2FEF89E698E1215080409040C8
:1000D000E1F700C000009F918F912F910F900FBE0C
:1000E0000F901F9018951F920F920FB60F92112428
:1000F0002F938F939F93969A2FEF89E698E1215043
:1001000080409040E1F700C000009F918F912F91B7
:100110000F900FBE0F901F9018951F920F920FB661
:100120000F9211242F938F939F93979A2FEF89E625
:1001300098E1215080409040E1F700C000009F917D
:100140008F912F910F900FBE0F901F901895F894DC
:02015000FFCFDF
:00000001FF
