S014000073656374696F6E315F6C61622E737265635C
S11300000C942A000C9434000C9434000C943400A6
S11300100C9434000C9434000C9434000C9434008C
S11300200C9434000C9434000C9434000C9434007C
S11300300C9434000C9434000C9434000C9434006C
S11300400C9434000C9434000C9434000C9434005C
S11300500C94340011241FBECFE5D8E0DEBFCDBF21
S11300600E9436000C945A000C9400008FEF8ABB57
S1130070A098A89AE0E070E041E050E09899FECFA3
S11300808E2F972F6BB39A01082E02C0220F331FB5
S11300900A94E2F7262B2BBB2FEF30E762E02150C6
S11300A030406040E1F700C00000019688309105BF
S10B00B049F7E4CFF894FFCFF7
S9030000FC
