S014000073656374696F6E315F6C61622E737265635C
S11300000C942A000C9434000C9434000C943400A6
S11300100C9434000C9434000C9434000C9434008C
S11300200C9434000C9434000C9434000C9434007C
S11300300C9434000C9434000C9434000C9434006C
S11300400C9434000C9434000C9434000C9434005C
S11300500C94340011241FBECFE5D8E0DEBFCDBF21
S11300600E9436000C9474000C9400008FEF8ABB3D
S113007080E090E0E7E070E041E050E0A0E0F0E0F4
S113008017C06BB39A01082E02C0220F331F0A94C3
S1130090E2F7262B2BBB2FEF34E36CE021503040EA
S11300A06040E1F700C00000019602C08A2F9F2F34
S11300B08830910534F38E2F972F6BB39A01082E55
S11300C002C0220F331F0A94E2F7209526232BBB8C
S11300D02FEF34E36CE0215030406040E1F700C082
S10F00E00000019750F7E2CFF894FFCF26
S9030000FC
